:020000040800F2
:1000000000200020AD190008950900089709000894
:1000100000000000000000000000000000000000E0
:100020000000000000000000000000009909000826
:1000300000000000000000009B0900089D09000866
:10004000FD190008FD190008FD190008FD19000838
:10005000FD1900082D060008FD190008FD1900080B
:10006000FD190008FD190008FD190008A509000880
:10007000FD190008FD190008FD190008FD19000808
:10008000FD190008FD19000800000000FD19000816
:10009000FD190008FD190008FD190008FD190008E8
:1000A000FD190008FD190008FD190008FD190008D8
:1000B000FD19000800000000FD1900080000000004
:1000C00010B5064C2378002B07D1054B002B02D02E
:1000D000044800E000BF0123237010BD400E002043
:1000E00000000000581A0008044B10B5002B03D084
:1000F0000349044800E000BF10BDC04600000000F6
:10010000440E0020581A0008002243088B4274D382
:1001100003098B425FD3030A8B4244D3030B8B4208
:1001200028D3030C8B420DD3FF22090212BA030C11
:100130008B4202D31212090265D0030B8B4219D3F2
:1001400000E0090AC30B8B4201D3CB03C01A524112
:10015000830B8B4201D38B03C01A5241430B8B425A
:1001600001D34B03C01A5241030B8B4201D30B0343
:10017000C01A5241C30A8B4201D3CB02C01A52416A
:10018000830A8B4201D38B02C01A5241430A8B422D
:1001900001D34B02C01A5241030A8B4201D30B0216
:1001A000C01A5241CDD2C3098B4201D3CB01C01A30
:1001B000524183098B4201D38B01C01A524143093A
:1001C0008B4201D34B01C01A524103098B4201D328
:1001D0000B01C01A5241C3088B4201D3CB00C01A95
:1001E000524183088B4201D38B00C01A524143080D
:1001F0008B4201D34B00C01A5241411A00D2014632
:10020000524110467047FFE701B5002000F006F8A4
:1002100002BDC0460029F7D076E770477047C04658
:1002200010B586B004AC08220021200001F00CFCBF
:100230001E4B59698020C003014359615A6902402D
:100240000392039A596980208002014359615A69D7
:1002500002400292029A5A698021C9020A435A61F5
:100260005B690B400193019B114A93680F218B43FB
:1002700093609021C905CB68032083430122134377
:10028000CB600B6883430B6004922271002363717F
:10029000A271200000F0DAFB00220021052000F00E
:1002A00039FC052000F066FC06B010BD00100240CD
:1002B0000000014000B583B0094A51690123194388
:1002C0005161526913400193019B002200210B20D0
:1002D00000F020FC0B2000F04DFC03B000BDC04638
:1002E0000010024082B003004000C01800230193B8
:1002F00004E0C046C046019B01330193019B834249
:10030000F7D302B07047000070B51420FFF7EAFF82
:100310000A4CA36980252D022B43A3611420FFF70B
:10032000E1FFA26980231B061343A3611420FFF79A
:10033000D9FFA3691D43A56170BDC04600080048F0
:1003400010B50400454A91698023DB010B4393619A
:1003500043B2002B46DB9022D205916980231B0615
:100360000B439361630645D59022D20591698023A2
:100370005B010B439361A30644D5394A91698023FD
:100380009B000B439361E30643D5354A9169802373
:100390005B000B439361FFF7B7FF230740D5902223
:1003A000D205916980231B020B43936163073FD5FC
:1003B0009022D205916980235B010B439361A307CF
:1003C0003ED5274A916980239B000B439361E30745
:1003D0003DD5234A916980235B000B439361FFF76E
:1003E00093FF10BD9022D205916980231B020B431D
:1003F0009361B7E79022D205916980235B050B4397
:100400009361B8E7164A916980239B040B4393617B
:10041000B9E7134A916980235B040B439361BAE700
:100420009022D205916980231B060B439361BDE79F
:100430009022D205916980235B050B439361BEE74F
:10044000074A916980239B040B439361BFE7044AE9
:10045000916980235B040B439361C0E70008004867
:100460000004004870B50500002403E0FFF768FFB2
:100470000134E4B2285D0028F8D170BD10B5040045
:10048000474A91698023DB050B43936143B2002BFC
:1004900049DB9022D205916980231B060B439361AF
:1004A000630648D59022D205916980235B010B43F6
:1004B0009361A30647D53B4A916980239B000B4378
:1004C0009361E30646D5374A916980235B000B436D
:1004D0009361FFF719FF230743D59022D205916955
:1004E00080231B020B439361630742D59022D20500
:1004F000916980235B010B439361A30741D5294A8E
:10050000916980239B000B439361E30740D5254A03
:10051000916980235B000B439361FFF7F5FE22484E
:10052000FFF7E0FE10BD9022D205916980231B02E7
:100530000B439361B4E79022D205916980235B0558
:100540000B439361B5E7174A916980239B040B43E2
:100550009361B6E7134A916980235B040B4393616F
:10056000B7E79022D205916980231B060B43936164
:10057000BAE79022D205916980235B050B43936112
:10058000BBE7084A916980239B040B439361BCE756
:10059000044A916980235B040B439361BDE7C04625
:1005A0000008004800040048B80B000010B51B4BC1
:1005B0005969802292020A435A6159698022D20203
:1005C0000A435A615969802212030A435A619022F0
:1005D000D20511688223DB050B431360104A1168B2
:1005E000A023DB020B4313600E4A1168A023DB0536
:1005F0000B4313600C48FFF775FE3320FFF73EFFF7
:100600003220FFF73BFF0C20FFF738FF2820FFF7D1
:1006100035FF0120FFF732FF10BDC0460010024039
:1006200000040048000800483075000010B500F0D4
:1006300007FA354B186090200121C00500F08EFCB0
:10064000012803D0012000F091FC10BD2E4B1A6848
:100650002E4B1B68D31A2E4909688B42F2D32B4BC1
:100660001A602C4A136801331360032B14D02A4BF1
:100670001A68D36829490B40D360294800F02DFB44
:10068000244B1B68012B21D0022B2ED0002B07D02E
:10069000204B00221A6011E0130000221A60E6E7E6
:1006A0009633204A12685B001F491D4800F0DAFAB1
:1006B0000120FFF7E3FE1D48FFF7D4FE164B1A6832
:1006C000D16880239B000B43D360BBE79623154A78
:1006D00012685B001649124800F0C4FA0120FFF7C7
:1006E000CDFE1448FFF7BEFEE8E796230D4A1268D8
:1006F0005B0011490A4800F0B5FA0120FFF7BEFE81
:100700000E48FFF7AFFED9E7600E0020380F00203B
:10071000C40400205C0E0020A80E0020FFFDFFFF97
:10072000640E002000000020040000207C0900204E
:10073000CC040020C804002084090020B804002054
:1007400072B6FEE700B58FB0102200210AA801F0B2
:100750007BF90822002108A801F076F91C2200216B
:1007600001A801F071F920488023DB050360002314
:10077000436083601D4A1268013AC260036180339E
:10078000836100F049FD002824D180235B010A9396
:100790000AA9154800F0BAFE00281DD1124800F041
:1007A00067FD00281AD100230893099308A90E4871
:1007B00001F03AF8002813D1002301930293039328
:1007C0000593002201A9084800F0EEFD002809D198
:1007D0000FB000BDFFF7B4FFFFF7B2FFFFF7B0FFA8
:1007E000FFF7AEFFFFF7ACFFA80E0020B404002017
:1007F00000B58FB0102200210AA801F025F90822C7
:10080000002108A801F020F91C22002101A801F014
:100810001BF92148214B0360002343608360204A79
:10082000C26003618033836100F0F6FC002828D1A8
:1008300080235B010A930AA9174800F067FE00288D
:1008400021D1154800F040FD00281ED10023089357
:10085000099308A9104800F0E7FF002817D160238A
:1008600001930023029303930593082201A90A48E8
:1008700000F0C8FD00280CD1074801F069F80FB05E
:1008800000BDFFF75DFFFFF75BFFFFF759FFFFF7C5
:1008900057FFFFF755FFC046F00E00200004004050
:1008A000FF03000010B51A4A136801218B4313603F
:1008B000174B1B68DB07FBD4164A136801210B4357
:1008C0001360144B1B689B07FBD5124B1A68F82169
:1008D0008A4378390A431A605A6870318A435A60E9
:1008E0005A680D490A405A605A6803218A435A607F
:1008F000084B5B680C221A42FAD1084801F050F804
:10090000032000F059F8002800D110BDFFF718FFB0
:100910000020024000100240FFF8FFFF00127A00A2
:1009200010B500F071F8FFF741FEFFF7BBFFFFF7CE
:1009300077FCFFF7BFFCFFF705FFFFF759FF082122
:100940000D4800F0F3FE0D4C0021200000F070FE79
:1009500096235B000A4A0B490B4800F083F90B48C9
:10096000FFF780FD0A48FFF7BDFC2268D1688023AD
:100970009B000B43D360FEE7F00E0020A80E002082
:100980003C04004004000020640E00207C0900208C
:10099000B80B0000FEE7FEE77047704710B500F0A7
:1009A00043F810BD10B5024800F0BCF910BDC046B8
:1009B000640E00207047000010B504000F4B19783A
:1009C000FA208000FFF7A0FB01000D4B1868FFF72D
:1009D0009BFB00F0DBF800280DD1032C01D901208E
:1009E0000AE0013000222100404200F093F8054B5C
:1009F0001C60002000E0012010BDC046380E002021
:100A0000340E00203C0E002010B5064A1368102159
:100A10000B4313600320FFF7CFFF00F03BFF0020E4
:100A200010BDC04600200240034A1168034B1B78EA
:100A30005B1813607047C0463C0F0020380E002042
:100A4000014B18687047C0463C0F002010B50300EA
:100A50000079002850D01A68002A57D05879012808
:100A600018D0022820D000280BD001209A79002A23
:100A70004BD0022A2CD0032A34D0012A1ED00120C8
:100A800043E023494C6894434C600A681C68224345
:100A90000A60EBE71E490868904308604A681868D6
:100AA00002434A600020E1E71949086802430A60EE
:100AB0004A68186802434A600020D7E7144AD168A0
:100AC0001C68A143D1601B6891680B4393601CE0D4
:100AD0000F4A91681C68A14391601B68D1680B4361
:100AE000D36012E00A4A91681C68214391601B6838
:100AF000D1680B43D36008E0054A11681C68A14324
:100B00001160196853688B43536010BD0020FCE7E7
:100B10000004014070B5002811DB8308134EC03378
:100B20009B009D5903242040C000FF2214008440F4
:100B3000A54389010A4082402A439A5170BD0F2380
:100B40000340083B9B0806339B00094A94466344D4
:100B50005C6803221040C000FC3215008540AC43A5
:100B600089010A40824022435A60E7E700E100E041
:100B700000ED00E0002805DB1F2318401E3B8340EA
:100B8000014A13607047C04600E100E0013880234D
:100B90005B0498420FD2094A50600948036A1B025D
:100BA0001B0AC02109060B4303620023936007332D
:100BB0001360002070470120FCE7C04610E000E011
:100BC00000ED00E030B50124056CAC40C56B6C60F5
:100BD000046863604368102B04D00368996003685D
:100BE000DA6030BD03689A600368D960F9E70000F5
:100BF00010B504000068054B9C4660441421FFF7C3
:100C000083FA80002064024BE36310BDF8FFFDBF50
:100C10000000024070B5041E20D021250223435558
:100C200001680B680E4A1A40436880680343E06815
:100C300003432069034360690343A0690343E069F8
:100C4000034313430B602000FFF7D2FF0023A3638D
:100C5000012262551F32A354002070BD0120FCE721
:100C60000FC0FFFF70B504002020205C012832D0A7
:100C70002020012525540130205C012804D02023A8
:100C80000022E254022070BD20300135255400209E
:100C9000A063256828680126B04328602000FFF77C
:100CA00091FFE36A002B0BD0226813680E210B43DF
:100CB00013602268136801210B4313600020E2E7F0
:100CC000226813680A210B431360226813680639EF
:100CD0008B431360EDE70220D5E710B52123C35CF9
:100CE000022B03D004238363012010BD0268136824
:100CF0000E218B43136001680A6801239A430A603E
:100D0000C26B1900046CA1405160212283541F332F
:100D10000022C254436B002B02D098470020E4E726
:100D20000020E2E770B5C36B1A6804682568016C9F
:100D300004238B401A4212D06B0710D523689B0600
:100D400003D42368042293432360C26B0423016C01
:100D50008B405360C36A002B00D0984770BD0223BC
:100D60008B401A4218D0AB0716D523689B0606D4D1
:100D700023680A22934323602123093AC254C26B99
:100D80000223016C8B40536020230022C254836AEB
:100D9000002BE3D09847E1E708238B401A42DDD0CF
:100DA0002B07DBD523680E2293432360C26B0123FC
:100DB0001900046CA14051608363212283541F33C6
:100DC0000022C254036B002BC8D09847C6E700002E
:100DD000F0B583B0002357E084685F000326BE406F
:100DE000B4432600CC68BC403443846044689443D8
:100DF0004A681609012232409A402243426053E079
:100E0000DC080834A400265805321A4092000F2747
:100E10009740BE430F6997403A003243225057E053
:100E2000032600E00026A64034003C430232920034
:100E3000444E9451444A9468EA432600AE434F68B6
:100E4000FF0201D52C4326003F4CA660E468260033
:100E500016404F68BF0201D52C4326003A4CE6608D
:100E60006468260016404F68BF0301D52C43260056
:100E7000354C6660246822404E68F60301D52A008E
:100E80002243314C226001330C682200DA4057D0F3
:100E900001229A40250015401442F4D003244E68E4
:100EA0003440013C012C97D903224C682240032A8C
:100EB00009D0C2685E000324B440A24314008A68CB
:100EC000B2402243C26003224C682240022A97D0DB
:100ED00004685E0003221700B740BC434F683A40E5
:100EE000B24022430260C02292024C681442CAD02F
:100EF000164CA66901221643A661A46922400192FC
:100F0000019A9A08941CA4000E4EA75903241C4071
:100F1000A4000F26A640B7439026F605B04281D024
:100F20000B4EB04208D00B4EB04207D00A4EB04232
:100F300000D175E7052676E7012674E7022672E7F9
:100F400003B0F0BD00000140000401400010024069
:100F50000004004800080048000C004803690B42E8
:100F600001D0012070470020FCE7704710B5054B09
:100F70005B69184200D110BD024B5861FFF7F5FFC5
:100F8000F9E7C0460004014030B5036A01229343EB
:100F90000362036A426884697325AC430D682C437D
:100FA0000225AB438D682B43144DA84208D0144D45
:100FB000A84205D0134DA84202D0134DA84205D136
:100FC0000825AB43CD682B430425AB430B4DA8420A
:100FD00008D00B4DA84205D00A4DA84202D00A4DB8
:100FE000A84205D1094D2A404D692A438D692A43FB
:100FF000426084614A684263036230BD002C014054
:10100000004001400044014000480140FFFCFFFF58
:1010100070B5036A194A13400362036A4268C469DF
:101020007325AC430E682643154C23408C6824027C
:101030002343144CA04219D0124CA04208D0124CA9
:10104000A04205D0114CA04202D0114CA04207D1C1
:10105000104C14404A69120122438C6925012A432D
:101060004260C6614A68C263036270BD0A4C1C409C
:10107000CB681B022343094C2340DDE7FFFEFFFF43
:10108000FFFDFFFF002C01400040014000440140F3
:1010900000480140FFCFFFFFFFF7FFFFFFFBFFFF0F
:1010A00030B5036A134A13400362026A4368C46995
:1010B000114D2C400D682D022C43104D15408A68AF
:1010C00012032A430E4DA84208D00E4DA84205D067
:1010D0000D4DA84202D00D4DA84204D10C4D2B401D
:1010E0004D69AD012B434360C4614B6803640262E8
:1010F00030BDC046FFEFFFFFFF8CFFFFFFDFFFFFAC
:10110000002C0140004001400044014000480140E3
:10111000FFBFFFFF30B5036A046A0125AC430462D8
:101120008469EF35AC43120122430A24A3430B43E5
:101130008261036230BD000030B5036A1024A3430E
:1011400003628469036A054D2C4012032243A024E4
:10115000A343090119438261016230BDFF0FFFFF04
:101160008368702293430B4307210B4383607047CE
:10117000704770470368214A904206D08022D2050A
:10118000904202D01E4A904203D1702293434A6893
:1011900013431A4A904212D08022D20590420ED0B8
:1011A000174A90420BD0174A904208D0164A9042F4
:1011B00005D0164A904202D0154A904203D1154AF2
:1011C0001340CA681343802293434A691343036060
:1011D0008B68C3620B688362084B984208D00A4B45
:1011E000984205D0094B984202D0094B984201D150
:1011F0000B690363012343617047C046002C014023
:101200000004004000200040004001400044014034
:1012100000480140FFFCFFFF70B5041E26D03D23AF
:10122000C35C002B1CD03D2502236355210001C95E
:10123000FFF7A0FF01234622A354083AA35401322A
:10124000A3540132A3540132A3540132A3540132F6
:10125000A3540132A3540132A3546355002070BD3E
:101260003C330022C25400F02DFBDCE70120F6E7FE
:1012700070B5041E26D03D23C35C002B1CD03D2539
:1012800002236355210001C9FFF774FF01234622A1
:10129000A354083AA3540132A3540132A354013297
:1012A000A3540132A3540132A3540132A354013296
:1012B000A3546355002070BD3C330022C254FFF795
:1012C00057FFDCE70120F6E770B5041E26D03D236A
:1012D000C35C002B1CD03D2502236355210001C9AE
:1012E000FFF748FF01234622A354083AA3540132D2
:1012F000A3540132A3540132A3540132A354013246
:10130000A3540132A3540132A3546355002070BD8D
:101310003C330022C254FFF72CFFDCE70120F6E744
:1013200070B5036A102293430362036A42688469BA
:10133000174D2C400D682D0225432024A3438C68B3
:1013400024012343134CA04219D0124CA04208D0D0
:10135000114CA04205D0114CA04202D0104CA0422A
:1013600007D1104C14404A69920022438C69A600B0
:101370003243426085614A688263036270BD8024A3
:10138000A3431C00CB681B0123434024A343DCE799
:10139000FF8CFFFF002C0140004001400044014051
:1013A00000480140FFF3FFFF10B504003C23C35C7D
:1013B000012B24D03C230120E054082A1AD008D85D
:1013C000002A12D0042A0CD12068FFF7A9FF0020C0
:1013D00007E00C2A04D12068FFF762FE002000E03D
:1013E00001203C230022E25410BD2068FFF7CCFD11
:1013F0000020F6E72068FFF70BFE0020F1E702204F
:10140000F2E7000070B504000D003C23C35C012B23
:1014100000D16AE03C230121C154082A50D01CD8D5
:10142000002A38D0042A16D129000068FFF778FF77
:101430002268916980231B010B43936122689369A1
:101440002B490B40936121688B692A69120213436F
:101450008B6100201BE0080019E00C2A16D129003E
:101460000068FFF71DFE2268D16980231B010B4332
:10147000D3612268D3691E490B40D3612168CB69CF
:101480002A6912021343CB61002000E001203C23B3
:101490000022E25470BD29000068FFF775FD226844
:1014A000936908210B4393612268936904398B4344
:1014B00093612268936929690B4393610020E6E7F1
:1014C00029000068FFF7A4FD2268D36908210B43B7
:1014D000D3612268D36904398B43D3612268D3690D
:1014E00029690B43D3610020D1E70220D2E7C0462F
:1014F000FFFBFFFF30B58468034D2C401B021343F4
:101500000B432343836030BDFF00FFFF10B5040091
:101510003C23C35C012B00D178E03C230122C25460
:1015200001330132C2540268936839480340936022
:101530000B68602B50D02AD8402B58D00CD9502B98
:1015400023D1CA6849682068FFF7E4FD502120686C
:10155000FFF706FE002005E0202B0ED009D9302B26
:101560000BD001203D230122E254013B0022E25432
:1015700010BD002B01D0102B05D119002068FFF7FA
:10158000EFFD0020EEE70120ECE70120EAE78022F2
:101590005201934236D08022920193420DD1CB6802
:1015A0004A6889682068FFF7A5FF22689168802350
:1015B000DB010B4393600020D4E7702B24D1CB6870
:1015C0004A6889682068FFF795FF22689368772149
:1015D0000B4393600020C5E7CA6849682068FFF79D
:1015E000ABFD60212068FFF7BBFD0020BAE7CA68A9
:1015F00049682068FFF78EFD40212068FFF7B0FDA5
:101600000020AFE70020ADE70120ABE70220AFE705
:101610008800FFFF10B51F23194001248C40036A86
:10162000A3430362036A8A401343036210BD0000B0
:1016300010B50400002936D13E23C35C013B5A1E7D
:101640009341DBB2002B62D1002945D13E33022207
:10165000E25401222068FFF7DDFF23682E4A9342FF
:1016600008D02E4A934205D02D4A934202D02D4AEB
:10167000934204D1596C802212020A435A642368AF
:10168000254A934238D08022D205934234D0264A4C
:10169000934231D0214A93422ED01A6801210A4345
:1016A0001A60002034E0042908D008290DD0412315
:1016B000C35C013B5A1E9341DBB2C3E73F23C35CCB
:1016C000013B5A1E9341DBB2BCE74023C35C013BA4
:1016D0005A1E9341DBB2B5E7042905D0082907D08B
:1016E00041230222E254B4E73F230222E254B0E74E
:1016F00040230222E254ACE7996807220A40062AF6
:1017000007D01A6801210A431A60002000E0012076
:1017100010BD0020FCE7C046002C01400040014005
:1017200000440140004801400004004010B504009E
:10173000002936D13E23C35C013B5A1E9341DBB2E4
:10174000002B62D1002945D13E330222E25401220E
:101750002068FFF75FFF23682E4A934208D02E4A85
:10176000934205D02D4A934202D02D4A934204D190
:10177000596C802212020A435A642368254A934214
:1017800038D08022D205934234D0264A934231D0B9
:10179000214A93422ED01A6801210A431A60002080
:1017A00034E0042908D008290DD04123C35C013B53
:1017B0005A1E9341DBB2C3E73F23C35C013B5A1E71
:1017C0009341DBB2BCE74023C35C013B5A1E93410B
:1017D000DBB2B5E7042905D0082907D0412302224E
:1017E000E254B4E73F230222E254B0E7402302224E
:1017F000E254ACE7996807220A40062A07D01A6823
:1018000001210A431A60002000E0012010BD0020E1
:10181000FCE7C046002C014000400140004401406C
:10182000004801400004004030B53C23C35C012B5C
:1018300028D03C230122C25401330132C254036830
:101840005A689C687025AA430D682A435A60036849
:101850000D4A934209D08022D205934205D00B4A0B
:10186000934202D00A4A934204D1802294434A68A8
:1018700014439C603D230122C254013B0022C25408
:10188000002030BD0220FCE7002C01400004004095
:101890000040014082B00A4B9969012211439961CD
:1018A00099690A400092009ADA69802149050A4341
:1018B000DA61DB690B400193019B02B07047C046BF
:1018C0000010024010B582B0040003688022D205E7
:1018D000934204D01A4A934227D002B010BD194A4D
:1018E000D16901231943D161D26913400093009B50
:1018F0001548164B03601023436000238360802249
:10190000C2608132FF3202618022120142612022D4
:101910008261C361FFF77EF9002803D10A4B63623D
:101920005C62DAE7FEF70CFFF8E7064AD1690223AA
:101930001943D161D26913400193019BCDE7C046A1
:101940000004004000100240640E002058000240D5
:1019500010B586B004001422002101A800F074F82C
:1019600022680C4B9A4201D006B010BD0A4A516958
:101970008020C00201435161536903400093009BE2
:101980000123019302220292059301A90348FFF764
:101990001FFAE9E70004004000100240000400487C
:1019A000014B18607047C046340E00200D48854634
:1019B000FFF700F80C480D490D4A002302E0D45807
:1019C000C4500433C4188C42F9D30A4A0A4C002389
:1019D00001E013600432A242FBD300F011F8FEF7DD
:1019E0009FFFFEE70020002000000020400E0020A6
:1019F000781A0008400E0020400F0020FEE700008B
:101A000070B500260C4D0D4C641BA410A64209D1E4
:101A1000002600F021F80A4D0A4C641BA410A642CF
:101A200005D170BDB300EB5898470136EEE7B3001F
:101A3000EB5898470136F2E7701A0008701A000850
:101A4000701A0008741A000803008218934200D12B
:101A5000704719700133F9E7F8B5C046F8BC08BC07
:101A60009E467047F8B5C046F8BC08BC9E46704715
:041A7000E900000881
:041A7400C1000008A5
:101A78003C040040FF0100000A02000014020000BC
:101A88001F0200002A020000340200003F0200008A
:101A98004A020000540200005F02000069020000D0
:101AA800740200007E020000880200009302000019
:101AB8009D020000A7020000B1020000BB02000066
:101AC800C5020000CF020000D9020000E2020000B7
:101AD800EC020000F5020000FE020000080300000E
:101AE800110300001A030000230300002B03000069
:101AF800340300003C030000450300004D030000D0
:101B0800550300005D030000650300006C0300003E
:101B1800740300007B0300008203000089030000B7
:101B28008F030000960300009C030000A30300003D
:101B3800A9030000AE030000B4030000BA030000CC
:101B4800BF030000C4030000C9030000CD03000068
:101B5800D2030000D6030000DA030000DE03000011
:101B6800E2030000E5030000E8030000EB030000C7
:101B7800EE030000F0030000F3030000F50300008B
:101B8800F7030000F9030000FA030000FB0300005C
:101B9800FC030000FD030000FE030000FE0300003C
:101BA800FE030000FE030000FE030000FD0300002A
:101BB800FC030000FB030000FA030000F903000027
:101BC800F7030000F5030000F3030000F003000032
:101BD800EE030000EB030000E8030000E50300004B
:101BE800E2030000DE030000DA030000D603000071
:101BF800D2030000CD030000C9030000C4030000A5
:101C0800BF030000BA030000B4030000AE030000E5
:101C1800A9030000A30300009C0300009603000032
:101C28008F03000089030000820300007B0300008B
:101C3800740300006C030000650300005D030000EE
:101C4800550300004D030000450300003C0300005D
:101C5800340300002B030000230300001A030000D4
:101C68001103000008030000FF020000F502000055
:101C7800EC020000E2020000D9020000CF020000DE
:101C8800C5020000BB020000B1020000A70200006C
:101C98009D02000093020000880200007E020000FE
:101CA80074020000690200005F0200005402000094
:101CB8004A0200003F020000340200002A0200002D
:101CC8001F020000140200000A020000FF010000C9
:101CD800F4010000EA010000DF010000D401000067
:101CE800CA010000BF010000B4010000AA01000001
:101CF8009F010000950100008A010000800100009A
:101D0800760100006B01000061010000570100002E
:101D18004D01000043010000390100002F010000BF
:101D2800250100001C01000012010000090100004B
:101D380000010000F6000000ED000000E4000000D3
:101D4800DB000000D3000000CA000000C200000051
:101D5800B9000000B1000000A9000000A1000000C7
:101D680099000000920000008A0000008300000033
:101D78007C000000750000006F0000006800000093
:101D8800620000005B0000005500000050000000E9
:101D98004A000000440000003F0000003A00000034
:101DA80035000000310000002C0000002800000071
:101DB80024000000200000001C00000019000000A2
:101DC8001600000013000000100000000E000000C4
:101DD8000B000000090000000700000005000000DB
:101DE80004000000030000000200000001000000E1
:101DF80000000000000000000000000000000000DB
:101E080000000000010000000200000003000000C4
:101E180004000000050000000700000009000000A1
:101E28000B0000000E00000010000000130000006E
:101E380016000000190000001C000000200000002F
:101E480024000000280000002C00000031000000E1
:101E5800350000003A0000003F0000004400000088
:101E68004A00000050000000550000005B00000020
:101E780062000000680000006F00000075000000AC
:101E88007C000000830000008A000000920000002F
:101E980099000000A1000000A9000000B1000000A6
:101EA800B9000000C2000000CA000000D300000012
:101EB800DB000000E4000000ED000000F600000078
:101EC8000001000009010000120100001C010000CF
:101ED800250100002F010000390100004301000026
:101EE8004D01000057010000610100006B01000076
:101EF80076010000800100008A01000095010000C1
:101F08009F010000AA010000B4010000BF01000009
:101F1800CA010000D4010000DF010000EA0100004E
:101F2800F401000085000000547269616E676C65F9
:101F380000000000F4010000536177000000000079
:101F480003000000060000000A0000000D00000069
:101F58001100000014000000170000001B00000022
:101F68001E000000220000002500000028000000DC
:101F78002C0000002F000000330000003600000095
:101F8800390000003D00000040000000440000004F
:101F9800470000004B0000004E0000005100000008
:101FA80055000000580000005C0000005F000000C1
:101FB8006200000066000000690000006D0000007B
:101FC8007000000073000000770000007A00000035
:101FD8007E000000810000008400000088000000EE
:101FE8008B0000008F0000009200000096000000A7
:101FF800990000009C000000A0000000A300000061
:10200800A7000000AA000000AD000000B100000019
:10201800B4000000B8000000BB000000BE000000D3
:10202800C2000000C5000000C9000000CC0000008C
:10203800D0000000D3000000D6000000DA00000045
:10204800DD000000E1000000E4000000E7000000FF
:10205800EB000000EE000000F2000000F5000000B8
:10206800F8000000FC000000FF0000000301000071
:1020780006010000090100000D0100001001000028
:1020880014010000170100001B0100001E010000E0
:102098002101000025010000280100002C0100009A
:1020A8002F01000032010000360100003901000054
:1020B8003D0100004001000043010000470100000D
:1020C8004A0100004E0100005101000055010000C6
:1020D800580100005B0100005F0100006201000080
:1020E80066010000690100006C0100007001000039
:1020F80073010000770100007A0100007D010000F3
:102108008101000084010000880100008B010000AB
:102118008E01000092010000950100009901000065
:102128009C010000A0010000A3010000A60100001E
:10213800AA010000AD010000B1010000B4010000D7
:10214800B7010000BB010000BE010000C201000091
:10215800C5010000C8010000CC010000CF0100004B
:10216800D3010000D6010000D9010000DD01000004
:10217800E0010000E4010000E7010000EB010000BD
:10218800EE010000F1010000F5010000F801000077
:10219800FC010000FF01000002020000060200002E
:1021A800090200000D0200001002000013020000E6
:1021B800170200001A0200001E020000210200009F
:1021C80025020000280200002B0200002F02000058
:1021D8003202000036020000390200003C02000012
:1021E8004002000043020000470200004A020000CB
:1021F8004D02000051020000540200005802000085
:102208005B0200005E02000062020000650200003E
:10221800690200006C0200007002000073020000F6
:10222800760200007A0200007D02000081020000B0
:1022380084020000870200008B0200008E0200006A
:102248009202000095020000980200009C02000023
:102258009F020000A3020000A6020000AA020000DC
:10226800AD020000B0020000B4020000B702000096
:10227800BB020000BE020000C1020000C50200004F
:10228800C8020000CC020000CF020000D202000009
:10229800D6020000D9020000DD020000E0020000C2
:1022A800E3020000E7020000EA020000EE0200007C
:1022B800F1020000F5020000F8020000FB02000035
:1022C800FF020000020300000603000009030000EB
:1022D8000C030000100300001303000017030000A4
:1022E8001A0300001D03000021030000240300005E
:1022F800280300002B0300002E0300003203000017
:1023080035030000390300003C03000040030000CF
:1023180043030000460300004A0300004D03000089
:102328005103000054030000570300005B03000042
:102338005E030000620300006503000068030000FC
:102348006C0300006F0300007303000076030000B5
:102358007A0300007D03000080030000840300006E
:10236800870300008B0300008E0300009103000028
:1023780095030000980300009C0300009F030000E1
:10238800A2030000A6030000A9030000AD0300009B
:10239800B0030000B3030000B7030000BA03000055
:1023A800BE030000C1030000C5030000C80300000D
:1023B800CB030000CF030000D2030000D6030000C7
:1023C800D9030000DC030000E0030000E303000081
:1023D800E7030000EA030000ED030000F10300003A
:1023E800F4030000F8030000FB03000053696E6566
:1023F8000000000000000000070000000E000000C0
:10240800140000001B00000022000000290000004A
:1024180030000000370000003D00000044000000CC
:102428004B00000052000000590000005F0000004F
:10243800660000006D000000740000007B000000D2
:1024480082000000880000008F0000009600000055
:102458009D000000A4000000AA000000B1000000D8
:10246800B8000000BF000000C6000000CD0000005A
:10247800D3000000DA000000E1000000E8000000DE
:10248800EF000000F6000000FC000000030100005F
:102498000A01000011010000180100001E010000DF
:1024A800250100002C010000330100003A01000062
:1024B80041010000470100004E01000055010000E5
:1024C8005C01000063010000690100007001000068
:1024D800770100007E010000850100008C010000EA
:1024E8009201000099010000A0010000A70100006E
:1024F800AE010000B4010000BB010000C2010000F1
:10250800C9010000D0010000D7010000DD01000072
:10251800E4010000EB010000F2010000F9010000F5
:1025280000020000060200000D0200001402000074
:102538001B02000022020000280200002F020000F7
:10254800360200003D020000440200004B02000079
:1025580051020000580200005F02000066020000FD
:102568006D020000730200007A0200008102000080
:10257800880200008F020000960200009C02000002
:10258800A3020000AA020000B1020000B802000085
:10259800BE020000C5020000CC020000D302000009
:1025A800DA020000E1020000E7020000EE0200008B
:1025B800F5020000FC02000003030000090300000C
:1025C80010030000170300001E030000250300008D
:1025D8002C03000032030000390300004003000010
:1025E800470300004E030000540300005B03000093
:1025F8006203000069030000700300007703000015
:102608007D030000840300008B0300009203000098
:1026180099030000A0030000A6030000AD0300001A
:10262800B4030000BB030000C2030000C80300009D
:10263800CF030000D6030000DD030000E403000020
:10264800EB030000F1030000F8030000FF030000A3
:10265800F8030000F1030000EB030000E4030000AE
:10266800DD030000D6030000CF030000C80300000C
:10267800C2030000BB030000B4030000AD03000068
:10268800A6030000A00300009903000092030000C5
:102698008B030000840300007D0300007703000023
:1026A8007003000069030000620300005B03000080
:1026B800540300004E0300004703000040030000DD
:1026C80039030000320300002C030000250300003A
:1026D8001E03000017030000100300000903000098
:1026E80003030000FC020000F5020000EE020000F7
:1026F800E7020000E1020000DA020000D302000055
:10270800CC020000C5020000BE020000B8020000B2
:10271800B1020000AA020000A30200009C0200000F
:10272800960200008F02000088020000810200006B
:102738007A020000730200006D02000066020000C9
:102748005F02000058020000510200004B02000026
:10275800440200003D020000360200002F02000083
:1027680028020000220200001B02000014020000E0
:102778000D0200000602000000020000F90100003E
:10278800F2010000EB010000E4010000DD0100009F
:10279800D7010000D0010000C9010000C2010000FB
:1027A800BB010000B4010000AE010000A701000059
:1027B800A001000099010000920100008C010000B6
:1027C800850100007E010000770100007001000013
:1027D80069010000630100005C0100005501000070
:1027E8004E01000047010000410100003A010000CD
:1027F800330100002C010000250100001E0100002B
:1028080018010000110100000A0100000301000086
:10281800FC000000F6000000EF000000E8000000E7
:10282800E1000000DA000000D3000000CD00000045
:10283800C6000000BF000000B8000000B1000000A2
:10284800AA000000A40000009D00000096000000FF
:102858008F00000088000000820000007B0000005C
:10286800740000006D000000660000005F000000BA
:1028780059000000520000004B0000004400000016
:102888003D00000037000000300000002900000073
:10289800220000001B000000140000000E000000D1
:1028A8000700000000127A00010000000400000088
:04000005080019AD29
:00000001FF
